:020000021000EC
:1090000000600020759301005D9301005F930100F3
:10901000619301006393010065930100000000006B
:109020000000000000000000000000006793010045
:1090300069930100000000006B9301006D93010033
:10904000B1B301006F93010081B501006F9301007E
:109050006F9301000000000035B401006F93010020
:109060006F9301006F9301006F9301006F930100F4
:109070006F9301006F9301006F9301006F930100E4
:109080006F930100A1A601006F9301006F9301008F
:109090006F9301006F93010005E201006F930100DF
:1090A0006F9301006F9301000000000000000000BA
:1090B0006F9301006F9301000000000000000000AA
:1090C00000000000000000000000000000000000A0
:1090D0000000000000000000000000000000000090
:1090E0000000000000000000000000000000000080
:1090F0000000000000000000000000000000000070
:10910000000000000000000000000000000000005F
:10911000000000000000000000000000000000004F
:10912000000000000000000000000000000000003F
:10913000000000000000000000000000000000002F
:10914000000000000000000000000000000000001F
:10915000000000000000000000000000000000000F
:1091600000000000000000000000000000000000FF
:1091700000000000000000000000000000000000EF
:1091800000000000000000000000000000000000DF
:1091900000000000000000000000000000000000CF
:1091A00000000000000000000000000000000000BF
:1091B00000000000000000000000000000000000AF
:1091C000000000000000000000000000000000009F
:1091D000000000000000000000000000000000008F
:1091E000000000000000000000000000000000007F
:1091F000000000000000000000000000000000006F
:10920000354936480A1A02D0072291438D4634491F
:1092100034480A1A06D00722914381F309880222B2
:1092200082F3148830483149314A00F044F831481B
:109230003149324A00F03FF831483249324A00F0B1
:109240003AF832483249334A00F035F83248334967
:10925000334A00F030F833483349344A00F02BF8F1
:1092600033483449344A00F026F83448344900225F
:1092700000F02CF833483449002200F027F8334836
:109280003349091A082902DB002202604160314A91
:1092900090471F481F49884205D00268043003B434
:1092A000904703BCF7E700208646EC4600200021EB
:1092B000294A9047FEE7884207D0521A05D0037822
:1092C00001300B700131013AF9D17047884202D068
:1092D00002700130FAE7704700600020005800205B
:1092E0000060002000600020F8F70100C822002084
:1092F00070230020BC930100BC930100E4E701004F
:10930000F8F70100C8220020C822002008E9010067
:1093100008E9010008E9010008E9010008E9010085
:1093200008E9010008E9010008E90100F8F7010077
:10933000A0F801007023002070230020702300207B
:1093400035330020383300203833002038330020F4
:10935000383B00208B93010051C90100FEE7FEE776
:10936000FEE7FEE7FEE7FEE7FEE7FEE7FEE7FEE7D5
:1093700000F002B8FFF7FCBF0B484FF0070188432D
:1093800085460A488047FFF73BBF094809490A4A12
:10939000884207D0521A05D0037801300B70013192
:1093A000013AF9D170470000006000208DAF010044
:0C93B00008E90100C8220020C8220020AB
:1093BC007047000007B5044B0093044A402300F0AB
:1093CC0032F803B05DF804FBDD930100712300203B
:1093DC002DE9F84388461446B2B10F4B0F4E0325C6
:1093EC00002743F00109224608EB0701002003F097
:1093FC0025FC0744241A48B933782BB14FF47A4032
:10940C00C847013D02D13570BDE8F88301233370A4
:10941C00002CE8D1F8E700BF10E901007023002010
:10942C00704703F03BBCF0B595B01D461646084698
:10943C000C4601F0DDFC1A9B0D93CDE90865002567
:10944C002B46082205A920460A958DF82C500C9520
:10945C0001F0EAFC079B0293069B03939DF81430E2
:10946C008DF8115003F00302012A1DD1BDF8142010
:10947C00059DC3F3C203C2F383168DF81030B200FE
:10948C0008230EA9204601F0CFFCC5F3952508ABA7
:10949C000093324602AB0EA9284600F02BFB204667
:1094AC0001F0AAFC15B0F0BD022AF8D1BDF8165097
:1094BC00C3F3C203C5F389158DF810300827082DA6
:1094CC002E4628BF08263B4632460EA9204601F000
:1094DC00ABFCAD1B08AB02AA31460EA8374400F01A
:1094EC006DFB002DEBD1DAE708B5FFF79AFF0448C6
:1094FC00042100F06FFA034B01225A7108BD00BF22
:10950C00F8E80100C82200200378024613F004009A
:10951C0006D003F00300012803D0022809D0012053
:10952C0070470B6812880233C2F3831213440B602A
:10953C0070470B685288023303EB92130B60EEE713
:10954C002DE9F04FDFF81CA187B00F46002304462D
:10955C00861C0DF1070015468DF8073000F02EFF24
:10956C00DAF804203A60DAF8083003F580739B1AB5
:10957C000AF21C470AF583690AF21448B3421AD35B
:10958C000020002D69D004F00F039B0143F005036C
:10959C0063F30F00DAF80430DAB2033233444AF8DA
:1095AC0022009DF80700CAF8043000F02BFF0120C0
:1095BC0007B0BDE8F08F0121384601F048F9484664
:1095CC0001F05DF9404601F05AF9DAF80800029012
:1095DC00C0B203300AEB800002A9FFF795FF029B93
:1095EC0030BBDAB20AEB8202D16803919A1C0133C8
:1095FC00DBB20AEB83030292D3F80CB001F0030345
:10960C00012B22D0022B15D08346404601F03AF9AB
:10961C0010B1029BCAF808305946384601F017F9C8
:10962C00DAF80830DAF8042003F580739B1AA5E702
:10963C00D8B2CEE7BDF80E30C3F3891303334FEA2B
:10964C001B4B02EB93030293DFE7BDF80C30C3F323
:10965C0083134FEA1B4B1344F5E7A40544F00600B3
:10966C0098E700BF84240020064B074810B5002261
:10967C001A7001F076FB044610B9044801F002FCA4
:10968C00204610BD8424002044E801004CE9010070
:10969C0030B50A4C71B10A4A0A49121BD208002390
:1096AC009A4201D1002030BD31F82350854202D0BE
:1096BC000133F5E7034654F83300F4E758E80100AA
:1096CC00F8E80100C8220020094B013903EBC00067
:1096DC00032909D8DFE801F00A02040604207047C8
:1096EC00007970474079704700207047022070471E
:1096FC0058E8010070470000034BD3E90130C31A4E
:10970C0058425841704700BF842400202DE9F04195
:10971C0086B0FFF7F1FF0546002840F0ED80774C4E
:10972C00C4F81804BFF34F8FA3680293DBB2033362
:10973C0004EB830002A9FFF7E7FE029B18B1D4F8F3
:10974C001824002A5AD0DAB2991C013304EB820295
:10975C00DBB204EB8303D268DB68049302F00303EF
:10976C00022B0392029154D1BDF80E306448C3F31E
:10977C008917502F3E4628BF502606F1080166F384
:10978C008F13C1F30901ADF80E3001F002FB054651
:10979C00002800F09C8001F02BFB0023082203A979
:1097AC00284601F037FB0299CB43DBB20133C9B237
:1097BC000331B6EB830F4FEA830204EB810125D909
:1097CC005FFA82F80823A6EB0806284601F022FB74
:1097DC00F6B208F108034B4903F0FC033246284665
:1097EC0001F018FB029B033703EB97070297D4F8A1
:1097FC001834002B43D1D4F8106453E062689A42B9
:10980C0094D8A260284606B0BDE8F0810823324601
:10981C00E5E7012B5BD1BDF80C303948C3F383115C
:10982C00062928BF062161F38913023101F00F01CB
:10983C008900ADF80C3001F0ACFA0546002846D092
:10984C0001F0D6FA0023082203A9284601F0E2FA17
:10985C000026BDF80C20C2F38312B300964203F12C
:10986C000803C4D202994A1CC9B20331029204EB18
:10987C0081010422284601F0CDFA0136E9E7284699
:10988C0001F0BAFAFFF738FF80F00105EDB2B9E745
:10989C00F3685B7923B1336829461B6830469847D7
:1098AC00F3681E68002EF3D1284601F0A5FA0DF1DD
:1098BC0007008DF8076000F081FDD4F818340BB95F
:1098CC00029BA3609DF8070000F09CFDDAE7D4F83A
:1098DC00104454B90C4B0D480D49C01AC008000473
:1098EC0040F0020000F05EF8CCE7236820469B684D
:1098FC009847E3681C68ECE7002583E78424002084
:10990C0044E801009024002058E8010080E80100A0
:10991C0034E901002DE9F34704460E46924601A9AD
:10992C00012218469946FFF70BFE1C4F10B3019D00
:10993C004FF00008AA1CC84508EB020125D11848B5
:10994C00002100F055FF80F31000000440EA1440A1
:10995C00E4006B1C04F03804DBB2EDB244F00104FB
:10996C0007EB8303033544EA881444EA8624D86061
:10997C0047F825403B781BB1FFF7C8FE0028FBD108
:10998C00FFF7B8FE02B0BDE8F087C9B207EB810162
:10999C005AF82830CB6008F10108CCE78424002069
:1099AC00A028002000231A46FFF7B4BF07B50123F7
:1099BC00019201AAFFF7AEFF03B05DF804FB07B5F7
:1099CC00CDE9002302236A46FFF7A4FF03B05DF83C
:1099DC0004FB000030B50F4CD4F8102403460020D3
:1099EC00114631B9D96808714AB9C4F810340A6003
:1099FC0030BDC9680D79854206D00968F1E7D26897
:109A0C0014680C601360F3E701300A28E8D14FF0BA
:109A1C00FF30EDE78424002038B5084B0125D3F83E
:109A2C0010441D7004B938BDE3685D71236820468D
:109A3C005B689847E3681C68F4E700BF8424002047
:109A4C00C38873B504460D4633B1144A00921449C9
:109A5C00144A284600F079FF217A05291CD0637A34
:109A6C004BB1A088FFF730FE0F4B104953F8202064
:109A7C00284600F06AFF227A0D4BA08853F822602A
:109A8C000021FFF705FE0B4903463246284602B07B
:109A9C00BDE8704000F059BF02B070BD78E901001C
:109AAC0060E9010058E90100E4E901007DE90100E9
:109ABC0008EA010080E9010010B5037A052B0C4679
:109ACC000FD0437A23B1084A0849204600F03DFFE5
:109ADC000749204600F039FF2046BDE8104000F051
:109AEC0029BF002AF8D0F3E778E901007DE90100ED
:109AFC0075E901002DE9F04385B01F460C9D00234C
:109B0C0095F80C902B7306460C4690462946384621
:109B1C00FFF796FFB8F1060F09D8DFE808F004123A
:109B2C00181F283340003146284600F00EFF002253
:109B3C0029463846FFF7C0FF85F80C9005B0BDE804
:109B4C00F08322683146284600F0FFFEEFE7D4E9A7
:109B5C0000233146284600F0F8FEE8E7A36800939E
:109B6C003146D4E90023284600F0EFFEDFE7E36836
:109B7C000193A36800933146D4E90023284600F0F2
:109B8C00E4FED4E723690293E3680193A36800938E
:109B9C003146D4E90023284600F0D7FEC7E76369B5
:109BAC00039323690293E3680193A36800933146FE
:109BBC00D4E90023284600F0C8FEB8E708292DE9AF
:109BCC00F74F80460E4617461C463DD800251B7B9A
:109BDC002573214610460193FFF732FFDFF888A06A
:109BEC00DFF888B0AE4232D918F805205946204625
:109BFC0000F0ABFE0135082DF4D11D49DFF874A03F
:109C0C00DFF874B0204600F0A0FE4FF000094E457E
:109C1C0024D918F809507E2D1ED8284604F008FDCA
:109C2C00002814BF2A462E225946204600F08DFEED
:109C3C0009F10109B9F1080FE9D101222146384691
:109C4C00FFF73AFF019B237303B0BDE8F08F514639
:109C5C00204600F07AFECDE72E22E5E7514620465D
:109C6C0000F073FEE4E700BF90E901008AE901000F
:109C7C0094E9010092E9010096E901001FB5002169
:109C8C00039001AA44F20100CDE9011100F004F89F
:109C9C0005B05DF804FB000038B572B6FFF7BCFEEA
:109CAC00FFF734FD0028FBD1104B114C114D12491C
:109CBC00E41AE408240444F00100FFF773FED5F81D
:109CCC00F030DB0700D500BE0C4944F00200FFF772
:109CDC0069FEBFF34F8FEA68094B02F4E06213434D
:109CEC00EB60BFF34F8F00BFFDE700BF58E80100EA
:109CFC0080E8010000ED00E027EA010033EA0100F2
:109D0C000400FA0510B5034649B152B1541E14EAC9
:109D1C00020006D1986019609C80D86010BD0E209E
:109D2C00FCE70920FAE710B58468C2688388121B27
:109D3C00934208D3C26813400268D154C3680133FC
:109D4C00C360002010BD0420FCE78268C3689A42FF
:109D5C000AD08268838813400268D35C0B708368D6
:109D6C0001338360002070470520704710B5D0E99F
:109D7C000243D1E90202A04272EB03032CBF012083
:109D8C00002010BD08B50A4800F06DFC094AD2E964
:109D9C000031C018084BD3E9002341F10001904277
:109DAC0071EB030303D210F1807041F1000108BD87
:109DBC00D022002040290020B829002037B50546C4
:109DCC000C460A4801A900F082FC60B105704460A1
:109DDC0001A9064800F0A5FC18B1054800F048FCA4
:109DEC00002003B030BD0420FBE700BFA4290020F5
:109DFC00D0220020294B73B51E7804461EB90026CC
:109E0C00304602B070BD0028F9D0FFF7BBFFD4E993
:109E1C0002239042994139D300230DF107008DF8AC
:109E2C00073000F0CBFA23692BB94FF0FF324FF01B
:109E3C00FF33C4E902239DF8070000F0E3FAD4E9EC
:109E4C000530984700250DF107008DF8075000F0FC
:109E5C00B5FA2369C3B1D4E90212B2F1FF3F08BFCE
:109E6C00B1F1FF3F05D05B1842F10002C4E90232A8
:109E7C0035469DF8070000F0C5FA002DBFD0084804
:109E8C00214601F01EF8BBE71D46F2E7B3F1FF3F98
:109E9C0008BFB2F1FF3FB2D0F1E700BF4829002064
:109EAC0050EA010013B5114B1149186801900823B1
:109EBC001048582200F0F8FB044698B90E4A0F4897
:109ECC0001A900F0C1FA044660B90C48012100F068
:109EDC00ADFB01230A4A0948194600F00FFB094B58
:109EEC0001221A70204602B010BD00BF4AEA0100E0
:109EFC004C290020A4290020F19F0100D022002031
:109F0C00FFFF7F004829002030B56AB103684FF08D
:109F1C00FF344FF0FF355A614A1E5142C3E90245E6
:109F2C0051411961002030BD0720FCE7F7B504460C
:109F3C0000250DF1070017460E468DF8075000F06E
:109F4C003DFAD4E90223B3F1FF3F08BFB2F1FF3F62
:109F5C0007D1FFF717FF301841F10001C4E90201E6
:109F6C0001259DF8070000F04DFA55B12369A76152
:109F7C0003B126612146002003B0BDE8F040FFF795
:109F8C001DBF284603B0F0BD37B5054600240DF1C2
:109F9C0007008DF8074000F011FAD5E90223B3F160
:109FAC00FF3F08BFB2F1FF3F06D04FF0FF324FF03A
:109FBC00FF33C5E9022301249DF8070000F022FAC3
:109FCC0034B12946012003B0BDE83040FFF7F6BE9E
:109FDC00204603B030BD0000014800F044BB00BF78
:109FEC00D02200202DE9F743064600F027FB40B1B4
:109FFC00634AD2E9003113F1807341F10001C2E9E7
:10A00C0000310021304600F028FB38B15D4C23684C
:10A01C0023B12068FFF7EEFE0023236001213046B8
:10A02C0000F01BFB20B1FFF7ADFE574BC3E900015D
:10A03C005648544F01A900F084FB4FF0FF344FF009
:10A04C00FF35A0B9DFF848814E4D404600F04FFF78
:10A05C00002800F08680D0E90223B3F1FF3F08BF4F
:10A06C00B2F1FF3F33D1404600F03BFFEDE7037800
:10A07C00012B21D0022B09D1DFF81481404600F0CE
:10A08C0030FF002877D0C0E90245F7E75BB941689B
:10A09C00D1E90223B3F1FF3F08BFB2F1FF3F02D079
:10A0AC003B4800F00EFF01A9384800F075FB01A9F0
:10A0BC00364800F046FBC4E741683B68994202D140
:10A0CC0000233B60EFE7324800F014FFEBE7296810
:10A0DC0091B12968D1E9020182428B412FD22B68C0
:10A0EC00D3E90223B3F1FF3F08BFB2F1FF3F03D026
:10A0FC002968404600F0E5FE404600F0F2FED0E94B
:10A10C0002490746FFF73EFE201A69EB01090128B8
:10A11C0079F1000318DBB0F5350F13D3FFF75CFFB3
:10A12C001C4A02441C484FF49603002100F006FA26
:10A13C0090B92B6813B9304600F0D8F92F6003B0F2
:10A14C00BDE8F0832246EDE71348002100F07BFACE
:10A15C003846FFF74FFE01E00D28F9D000232B60A5
:10A16C0073E7084B1B68002BE9D1304603B0BDE800
:10A17C00F04300F0BFB9094B01221A7093E700BFFE
:10A18C0040290020C0290020B8290020A429002043
:10A19C0050EA0100FFFFB400D02200204829002023
:10A1AC000648074A03780749D35C012213B10430EF
:10A1BC0001F040BE0C3001F003BC00BFD8220020DF
:10A1CC00342A0020EC2900200648074A0378074966
:10A1DC00D35C012213B1043001F0DEBD0C3001F070
:10A1EC009FBB00BFD8220020342A0020ED2900207C
:10A1FC0037B50578012D0DD0022D30D075B91F491A
:10A20C001F48FFF7A2FD002834D103B0BDE8304051
:10A21C00FFF7DABF037A1BB9FFF7C2FF03B030BDFB
:10A22C004368184C19782046FFF77DFD80B18DF8F6
:10A23C0000500190144B68461B689847A168E3686E
:10A24C00A2885B1A9A42E7D2104B01221A70E5E7FA
:10A25C00A268E3689A42F1D08DF80000EAE7C3687F
:10A26C008DF800500193FFF79BFF074B68461B6866
:10A27C009847D3E703238DF80030F6E7ED2900204B
:10A28C00DC290020C8290020C4290020D82900205E
:10A29C00F0B51F46234B89B004461A600D460029C1
:10A2AC003DD08A8820480968FFF72CFD002834D15E
:10A2BC00AA89A9681D48FFF725FD00282DD11C4E41
:10A2CC000FCE6D460FC596E80F0085E80F00636949
:10A2DC000693237C174A18488DF81C70003B18BF56
:10A2EC0001238DF81430637C002B14BF0E23002344
:10A2FC008DF81530E3680293A368039323680193E8
:10A30C0069466368009300F0D5FF30B90B4B1870A9
:10A31C002368013301D0FFF743FF09B0F0BD0720DC
:10A32C00FBE700BFC4290020C8290020DC2900203D
:10A33C005CEA0100FDA10100D8220020D8290020F0
:10A34C0070B5084D014608482E78FFF7FEFC044610
:10A35C0036B100232B70FFF723FF08B1FFF78EFCFB
:10A36C00204670BDD8290020C829002010B5014610
:10A37C000E48FFF7D8FC0446A8B90D480D4A0378DF
:10A38C00D35C63B1043001F0FBFC60B90A490748A7
:10A39C00FFF7DBFC38B9BDE81040FFF715BF0C30F8
:10A3AC0001F0B2FAF1E7204610BD00BFDC29002015
:10A3BC00D8220020342A0020ED29002070B5EFF3BC
:10A3CC00108672B60C4A946801239CB993600B4BAF
:10A3DC000B4DD3F8801029401160C3F88050D3F88E
:10A3EC00841051604FF0FF32C3F88420047006B91A
:10A3FC0062B670BD0370FAE7F029002000E100E0BE
:10A40C00FC06FFBD084B9A6810B55AB150B9EFF372
:10A41C00108172B6054A1C6814605C6854609860C0
:10A42C0001B962B610BD00BFF029002000E100E0C8
:10A43C000346405882B028B100225A505B58019311
:10A44C00019B012002B07047F8B5204B4479204E97
:10A45C0043F824201F4A204B06EBC4049B1A227994
:10A46C00DB081B0432B143F002001C49FFF79AFAD7
:10A47C000820F8BD02680C88C2F8084590F9045011
:10A48C008A7804795201002DD2B219DB14494F1984
:10A49C0087F8002301226D0904F01F0402FA04F46A
:10A4AC0041F82540427906EBC201012446F83200FE
:10A4BC000C7143F003000B49FFF774FA0020D8E746
:10A4CC00094904F00F040A55ECE700BF042A0020E8
:10A4DC00FC29002058E8010090E801007CEA01000A
:10A4EC0000E100E09EEA010014ED00E003680122A7
:10A4FC001A607047036801225A60704773B501F106
:10A50C005005AD000068ADB24FF480348C4000268D
:10A51C00C0F80843C0F84843465101F5A8714559A5
:10A52C00019522F07F42019D40F82120C0F8444360
:10A53C000BB1C0F8044302B070BD00002DE9F74F19
:10A54C000D4622F07F4402684FF4803705F1500627
:10A55C008F408046B60002EB8500C2F84873B6B255
:10A56C00C2F80873D2F8041599464FF0000BD0F8D6
:10A57C004035C0F8401542F806B05B1A925900926B
:10A58C0023F07F43012B009A4FEA850A0CD1264B0E
:10A59C004FF4806043F001039847D8F8003043F83B
:10A5AC0006B09B590193019BD8F80010D1F80465B3
:10A5BC00C1F84473A31B23F07F43012B1CD11A4B0E
:10A5CC0005F5A875013443F0010341F825404FF41B
:10A5DC0080609847D8F80030D3F804359E4209D1F2
:10A5EC00D8F800300020C3F84473C3F8047303B0E8
:10A5FC00BDE8F08F0D20FAE78A44C9F1FF13CAF8C1
:10A60C004045D1F80405221A013A22F07F4203F5A5
:10A61C007F439342EED3002AE2D10134CAF840457D
:10A62C00D1F804359842DAE7B0EA01000368022257
:10A63C00C3F8442309B1C3F80423704700684FF4EE
:10A64C008271FFF7F5BE4FF4803303FA01F1036812
:10A65C00C3F84813C3F808137047503189000068D9
:10A66C0089B2FFF7E5BE0368D3F804057047000014
:10A67C0090F90430002B09DB5A09012103F01F0368
:10A68C0001FA03F34032024941F82230704700BF0F
:10A69C0000E100E0024B034A1B681068184700BF3A
:10A6AC00042A0020FC29002030B5054659B1B2FB24
:10A6BC00F3F403FB1424A0B238B9C5E90010A86068
:10A6CC00AA81EB8130BD0E20FCE70920FAE737B5F3
:10A6DC0050E8013F9DB2C48925448489A54228BF16
:10A6EC002D1B0489A54202BFBFF32F8F002207E068
:10A6FC00C5EA030540E80154002CE9D14FF00102F2
:10A70C008DF803200193019A0A609DF8031001F063
:10A71C00FF0321B1006810FA82F003B030BD184677
:10A72C00FBE70A884B889A4209D150E8012FC2EA0C
:10A73C00024240E80123002BF7D101207047002092
:10A74C00704737B550E8023F1FFAA3F5C488A542FD
:10A75C0002BFBFF32F8F00220DE0C48925448489EA
:10A76C00A54228BF2D1BC3EA054540E80254002C26
:10A77C00E8D14FF001028DF803200193019A0A6091
:10A78C009DF8031001F0FF0321B1006800EB1240AB
:10A79C0003B030BD1846FBE70A884B889A4209D1B2
:10A7AC0050E8022FC2EA224240E80223002BF7D1E4
:10A7BC00012070470020704701F01F024B09012156
:10A7CC00914000EB830000F01EB801F01F03012242
:10A7DC009A404B0900EB8300D14300F02CB84B0995
:10A7EC0001F01F0150F82300C84000F00100704731
:10A7FC0010B5034653E8000F0A4643E8002494F0D2
:10A80C00000FF7D110BD10B5034653E8002F42EAF4
:10A81C00010043E8000494F0000FF6D110BD10B510
:10A82C00034653E8000F00EA010243E8002494F0C9
:10A83C00000FF6D110BD10B5034653E8002F02EA05
:10A84C00010043E8000494F0000FF6D110BD10B5E0
:10A85C00034653E8002F02EB010043E8000494F098
:10A86C00000FF6D110BD10B5034653E8002FA2EB34
:10A87C00010043E8000494F0000FF6D110BD012153
:10A88C00FFF7C1BF0021FFF7CABF10B590B1D0E9E7
:10A89C00012301689B1ADBB20A60013BDBB2FF2B80
:10A8AC00026802D10020107110BD11684C1C14609C
:10A8BC000B70F2E70E20F7E737B5054600240DF1D3
:10A8CC0007008DF80740FFF779FD2A686B6811685F
:10A8DC0099420ED9481E106011F8013CEC68298A87
:10A8EC0001FB0344AB6811791B1ADBB2994238BFE8
:10A8FC0013719DF80700FFF785FD204603B030BDAE
:10A90C0037B5054600230DF107000C468DF80730CE
:10A91C00FFF754FD2A681368591C1160E968641A22
:10A92C00298AB4FBF1F41C709DF80700FFF76AFD4F
:10A93C0003B030BD826810B504462AB14369016882
:10A94C00006998470023A36010BD0EB403B50399AA
:10A95C0021B104AB01AA019300F076F802B05DF8C6
:10A96C0004EB03B070470A2938B504460D4602D1F2
:10A97C000D21FFF7F8FFA3682268591CA160D5547C
:10A98C00D4E901329A4204D32046BDE83840FFF79F
:10A99C00D1BF38BD2DE9F84F9846DDE90A4315467D
:10A9AC0082460F460A464FF00109AA420FD2C14512
:10A9BC0038BFC14613F0010B01D16CB9002401263C
:10A9CC00B8F1010F1BD908F1FF386E43F8E709F114
:10A9DC000109B2FBF5F2E8E79B070ED5B8F1000FC1
:10A9EC000CBF30262026A145E9D2013C3146504609
:10A9FC00FFF7B9FF002CF6D1E0E72026F3E7B7FB11
:10AA0C00F6F39D42E1D9DFF83C80B7FBF6F35046F4
:10AA1C0018F8031006FB1377FFF7A5FF3346AB427C
:10AA2C00B6FBF5F6F1D2BBF1000F02D00CB1A1458B
:10AA3C0001D3BDE8F88F20215046013CFFF793FF6E
:10AA4C00F4E700BFB6EA01002DE9F74F05461746BB
:10AA5C008846002900F03E8118F8011B49B92B7B70
:10AA6C00002B00F03781284603B0BDE8F04FFFF70C
:10AA7C0061BF252940F0B780002698F800302D2BB7
:10AA8C00424608F1010823D0302B24D02B2B25D0A3
:10AA9C0000242A2B02F1010123D13B681A1D1B68EB
:10AAAC003A601C440A4613782E2B26D101324FF003
:10AABC00000A104610F8011BA1F1300CBCF1090F73
:10AACC001DD80A2303FB0A13A3F1300A0246F0E750
:10AADC0046F00106D1E746F00206CEE746F0040642
:10AAEC00CBE711F8013CA3F130000928DBD80A228E
:10AAFC0002FB0434303C0A46CBE74FF0000A12F854
:10AB0C00011B01F0FB0068289046F8D0782909D881
:10AB1C006F290CD8632962D022D8252963D05829F3
:10AB2C0000F0888098F80030002B95D197E77039A9
:10AB3C000829F7D801A353F821F000BFBBAC0100E2
:10AB4C0031AB010031AB010051AC010031AB010064
:10AB5C002FAC010031AB010031AB010041AC010065
:10AB6C00642901D06929DDD13A68D2F80090111D11
:10AB7C0089EAE9723960A2EBE9724FF0010B092AFC
:10AB8C0035DCD34538BFD3462CB1B9F1000F01DB0E
:10AB9C00720700D5013CB30702D5BAF1000F03D000
:10ABAC00F00701D44CBB0024B9F1000F2DDAC9F128
:10ABBC0000092D212846FFF7D6FE06F00302022AD3
:10ABCC0004D1BAF1000F01D11CBB0024CDE9004621
:10ABDC0053460A2249462846FFF7DCFEA2E73B68AB
:10ABEC001A1D19783A602846FFF7BDFE9AE70A232A
:10ABFC000BF1010BB2FBF3F2C1E7A345D4D2202138
:10AC0C002846013CFFF7AFFECCE77107D5D52B21C9
:10AC1C00D0E7A345DAD230212846013CFFF7A3FE4A
:10AC2C00D2E73968CDE900460A1D3A6053460A223C
:10AC3C000968D0E739680A1D3A60CDE900465346E9
:10AC4C001022F5E73B681A1D3A6016F00106D3F89E
:10AC5C00009024D1B9F1000F03D0484603F088FDD1
:10AC6C000646B4421DD809F1FF3919F8011F002915
:10AC7C003FF458AF2846FFF776FEF6E72846013634
:10AC8C00FFF771FE19F806100029F7D1A642BFF4A0
:10AC9C0049AF20212846013CFFF765FEF6E7002668
:10ACAC00F0E720212846013CFFF75DFED9E73B6821
:10ACBC001A1D3A60302128461C68FFF754FE782193
:10ACCC002846FFF750FE00220823CDE9003221462A
:10ACDC00102280E703B0BDE8F08F00BF2DE9F84FDC
:10ACEC00B0F806A04579D2F800B09DF828900AFB80
:10ACFC0005F5043D88460BEB0301A94203F104045E
:10AD0C0088BFA5EB030BB4FBFAF607460AFB164407
:10AD1C00C2F800B04EB9AAEB04055D4528BF5D46EC
:10AD2C00BBF1000F04D1BDE8F88F3F68013EF1E79D
:10AD3C00043408EB06003C442A46B9F1000F0DD050
:10AD4C002146ABEB050B03F095FCDA452E443F682E
:10AD5C0055464FF0000428BF5D46E1E7014620460A
:10AD6C00EFE7FFF792BDF8B546790146721E05462E
:10AD7C00002393422D6803D30024A64202D8F8BDC9
:10AD8C000133F6E70F682846FFF7BAFD0134394660
:10AD9C00F3E72DE9F843068ACD1C0746FFF78CFD37
:10ADAC00043E35440446B5FBF6F5F0B14FF4807320
:10ADBC00EDB28380C680013D076081464FF00008EC
:10ADCC00A84512D23846FFF777FD064648B163799D
:10ADDC000133637108F10108C9F80000076081466E
:10ADEC00EEE72046FFF7BFFF34462046BDE8F88368
:10ADFC0001210430FFF72BBD10B5012104460430AE
:10AE0C00FFF731FDC0B220B92046BDE81040FFF776
:10AE1C00AABF10BD1FB503920022009203AAFFF730
:10AE2C005DFF05B05DF804FB1FB503920122009293
:10AE3C0003AAFFF753FF05B05DF804FB41DF704731
:10AE4C00064B10B500241C70054B1C60BFF35F8FC4
:10AE5C000449054800F01FF8204610BD102A0020B8
:10AE6C00142A0020D0EA0100082A002008B503F0BB
:10AE7C00A9F918B1BDE80840FFF7E0BF20BF40BFFB
:10AE8C0020BF08BD836800225A60C3E904229A607F
:10AE9C00DA601A6070470B684A684360934208BFD7
:10AEAC000023016008BF43607047436843B10268E8
:10AEBC00916852680B449342436004BF0023436083
:10AECC00704770B5446806460D46206818B1B368E3
:10AEDC002946984718B923682B60256070BD2468F3
:10AEEC00F3E74368186808B102681A607047436852
:10AEFC00186870474368186800B97047884203D1D6
:10AF0C0002681A600120704703460068F4E70000ED
:10AF1C0010B50D49A1F59472914201D800200FE0B3
:10AF2C008C1AE30F03EBE4035B1002EBC30452F83F
:10AF3C003330834205D802D204F10802ECE7606892
:10AF4C0010BD2146E8E700BFDCEF010008B5FFF7B4
:10AF5C00DFFF024B002808BF184608BD9FEE01001A
:10AF6C0010B50446C0B2FFF701FA204610BD4FF0F1
:10AF7C008053D3F83001A0F10E035842584170476A
:10AF8C0008B5FFF7F4FF48B14FF080534FF0804203
:10AF9C00D3F84432C3F34233C2F83C35FFF7E7FF32
:10AFAC0040B14FF080430022C3F80C21C3F81021AC
:10AFBC00C3F83825FFF7DBFF002846D04FF080524E
:10AFCC00304BD2F80414C3F82015D2F80814C3F887
:10AFDC002415D2F80C14C3F82815D2F81014C3F8A1
:10AFEC002C15D2F81414C3F83015D2F81814C3F871
:10AFFC003415D2F81C14C3F84015D2F82014C3F839
:10B00C004415D2F82414C3F84815D2F82814C3F800
:10B01C004C15D2F82C14C3F85015D2F83014C3F8D0
:10B02C005415D2F83414C3F86015D2F83814C3F898
:10B03C006415D2F83C14C3F86815D2F84014C3F860
:10B04C006C15D2F84424C3F87025FFF790FF48B173
:10B05C004FF08043D3F80024D20744BF6FF00102B5
:10B06C00C3F80024FFF783FF38B14FF08042D2F8C9
:10B07C00E43E43F00F03C2F8E43E034B034A1A606C
:10B08C0008BD00BF00C00040EC2200200090D0039F
:10B09C004FF0A043D3F804056FEA905000F0010084
:10B0AC0070474FF0A0434FF48002C3F80C25704753
:10B0BC004FF0A0434FF48002C3F8082570474FF0BF
:10B0CC00A0434FF48002C3F8082570474FF0A0430B
:10B0DC004FF48002C3F80C2570474FF0A042D2F811
:10B0EC000435D94301F4800103F48003C2F8081538
:10B0FC00C2F80C357047C30706D54FF0A0430322A6
:10B10C00C3F85827FFF7DBBF7047000038B5074C72
:10B11C00051E04F1080318BF1C4623682BB11A68DE
:10B12C0022605B6828469847F7E738BD202A002044
:10B13C0020B9054B01225A70FFF7E8BF012802D154
:10B14C00014A9070F8E77047182A002020B9034B89
:10B15C0001225A70FFF7DABF704700BF182A00208F
:10B16C0038B50E4C2378B3B90D486360A3602361E6
:10B17C00E36000F0E7F8054603F024F808B900F0A6
:10B18C00EDF801232370074BD3F800340BB10123E6
:10B19C00A370284638BD8525F5E700BF182A002086
:10B1AC003DB101000000014037B50D4C00230DF1FD
:10B1BC0007008DF80730FFF701F9E368013BE36006
:10B1CC00E36833B9074BD3F8005415B900F0D8F83D
:10B1DC00A5709DF80700FFF715F903B030BD00BF4F
:10B1EC00182A002000000140012813B50CD00328B8
:10B1FC0020D038B9134B0122C3F88020BFF34F8FF6
:10B20C00BFF36F8F02B010BD0F4C00230DF1070080
:10B21C008DF80730FFF7D2F823780BB9FFF7A0FFB2
:10B22C00E3689DF807000133E3600123A370FFF787
:10B23C00E9F8E7E700F092F802B0BDE81040FFF73C
:10B24C00B3BF00BF00E100E0182A00201FB503784F
:10B25C008DF800304368019383688DF80830C3681B
:10B26C00054A0393054B684653F8213052F82110D8
:10B27C00984705B05DF804FB2C2A0020302A0020EA
:10B28C001FB503788DF800304368019383688DF8FF
:10B29C000830C368054A0393054B684653F82130C0
:10B2AC0052F82110984705B05DF804FB2C2A0020B9
:10B2BC00302A0020F0B5194B90F800C091F81DE031
:10B2CC0043F82C20164B16460A6943F82C20154BD4
:10B2DC0003F80CE00C4607460FCC89B06D460FC541
:10B2EC0094E80F0085E80F00CDF810C0BEF1000FF8
:10B2FC0009D0002E0C4A694608BF3246381D00F0B2
:10B30C007DFC09B0F0BD002E084A694608BF3246E4
:10B31C0007F10C0000F044FAF3E700BF302A0020DC
:10B32C002C2A0020342A002059B201008DB20100D1
:10B33C0000F18040002382B0036003680193019BFD
:10B34C0002B07047044B0246187918B91A600122F2
:10B35C001A71704785207047382A0020074B1A68ED
:10B36C00D20704D4C02283F8002301221A604FF0C4
:10B37C0080430122C3F81825704700BF00E100E0AC
:10B38C004FF0804208B50223C2F808334FF48270A4
:10B39C00FFF7CEFF0123D360D2F81834DB03FBD4C4
:10B3AC0008BD00004FF0804210B5D2F8003153B107
:10B3BC004FF48070FFF7BCFF0123C2F808330B4B2E
:10B3CC0000201B6898474FF08042D2F8043163B1DB
:10B3DC004FF48270FFF7ACFF0223C2F80833034B23
:10B3EC00BDE810401B680120184710BD382A00200A
:10B3FC0000F1804000F5C040002382B00360036878
:10B40C000193019B02B07047800000F1A040D0F87E
:10B41C00002722F44032C0F80027D0F8003743EA66
:10B42C000143C0F8003770472DE9F74F00244E4D0B
:10B43C0001944FF48072012102F1804303F5C04363
:10B44C0090B21B68012B06D1D5F804330B4202D005
:10B45C00FFF7CEFF0C430432B2F5907F4FEA410167
:10B46C00EAD1414BD3F87C31012B0CD14FF4BE7097
:10B47C00FFF7BEFF4FF0A04344F00044D3F8202563
:10B48C000192C3F82025E3B2D3B1384F0025012631
:10B49C00344210D0AB0003F1804303F5C043D3F822
:10B4AC001005D3F8101557F8253023B1C1F301411D
:10B4BC00C0F3042098470135082D4FEA4606E7D122
:10B4CC00002C48DA294D4FF0A048294E4FF00009C6
:10B4DC00012716F9013B5A1C31D0C3F3C2020832C2
:10B4EC006A44DCB212F8042C03F03F0A03F00703A1
:10B4FC0007FA03F31A4222D00AF5E073504658F8C3
:10B50C002330C3F3014BBBF1020F0CBF032102210B
:10B51C00FFF77AFF07FA0AF3C8F8203505EB0A03A0
:10B52C0093F9303055F823304BB1A109032904D0DD
:10B53C00BBF1020F12D1012901D15046984709F1F4
:10B54C000109B9F1040FC4D1D8F820350193C8F81A
:10B55C002035002BB9D103B0BDE8F08FBBF1030F40
:10B56C00EDD10229E8E700BF00600040402A00202E
:10B57C00902A0020014B1B68184700BF9C2A002012
:10B58C000E4B984237B50C4602D0002003B030BDAC
:10B59C0000230DF107008DF80730FEF70FFF084B65
:10B5AC001D7915B901221C601A719DF80700FEF770
:10B5BC0029FF002DE9D01120E8E700BF0020004052
:10B5CC009C2A00200023435082B043580193019BD6
:10B5DC0002B070470A4610B54FF48E71FFF7F2FFB8
:10B5EC00136A9168C95C136A01331362C0F81C15A5
:10B5FC0010BD024608B500684FF49271FFF7E2FFE8
:10B60C0010684FF48471FFF7DDFF136801221A6094
:10B61C0008BD8B690A4610B54FF4847123B9FFF746
:10B62C00D1FFD0F8183510BDFFF7CCFF536AD168A5
:10B63C00D0F81805C854536A01335362F3E700007D
:10B64C001FB501238DF80030044BCDE90110D3E96F
:10B65C0000126846904705B05DF804FBA42A002050
:10B66C0030B54D4DD5F804339A0585B051D5D5F884
:10B67C002431002B4DD04FF492712846FFF7A2FFD6
:10B68C004FF40173C5F80833444B93F829200AB9D9
:10B69C0001226A60404902228DF80020D1F88024F2
:10B6AC00C1F8802403929A690292DA68019200220E
:10B6BC00C3E906226846D3E9001290473648D0F811
:10B6CC001C315BB1354A5169136A99424DD992F8D4
:10B6DC002830002B49D11146FFF77CFF2E48D0F8BB
:10B6EC004431002B56D04FF4A271FFF76BFF2B4B5C
:10B6FC0093F829200AB1012202609A69002A49D0E4
:10B70C00586AD96800229A6105B0BDE83040FFF74D
:10B71C0097BFD5F804335B07D0D5D5F80831002B8B
:10B72C00CCD01E4C1C482146FFF773FF636AA269FC
:10B73C009A42C3D1E369E1684BB1A3612369E36029
:10B74C000023606AE3616362FFF77AFFB6E794F85F
:10B75C0029300BB901236B600F4B4FF40172C3F806
:10B76C0008230023606AA361EEE70B484FF48E7147
:10B77C00FFF728FF5369002BB0D0516902910023C9
:10B78C0091688DF80030019153616846D2E900133D
:10B79C009847A3E705B030BD00200040A42A002044
:10B7AC002DE9F843534D90F804802C2303FB0853E8
:10B7BC00064693F82A300C469146002B40F09680B2
:10B7CC004D490068FFF7DCFE0746002840F09080EA
:10B7DC0022683068511C0BD04FF0A04101239340DC
:10B7EC00C1F8083502F5E0734FF0030C41F823C0A3
:10B7FC0061684B1C1FBF01F5E0734FF0A04C4FF07C
:10B80C00000E4CF823E0A369C0F8243594F814C05A
:10B81C00637DBCF1010F4CEA0303C0F86C35C0F832
:10B82C001415C0F80C251DD1A268531C1FBF02F5BE
:10B83C00E0734FF0A0414FF0000C41F823C0E368D7
:10B84C00591C0BD04FF0A04C01219940CCF8081595
:10B85C0003F5E0714FF0030E4CF821E0C0F8083509
:10B86C00C0F810252C2202FB08F2AB18C3F8049088
:10B87C002369AB50B9F1000F20D04FF48E71247FA7
:10B88C00FFF7A0FE4FF4A2713068FFF79BFE326801
:10B89C001A4BC2F80433130B42F307326101002A2E
:10B8AC00C9B21EDB1648841884F800130121520912
:10B8BC0003F01F0301FA03F340F82230336804222B
:10B8CC00C3F800252C2303FB08530022C3E90622EE
:10B8DC0083F829205A61012283F82A203846BDE8D2
:10B8EC00F883084A03F00F03D154E7E70827F5E77C
:10B8FC001127F3E7A42A00206DB601008000020096
:10B90C0000E100E014ED00E00279044B2C2101FB76
:10B91C0002335869003818BF01207047A42A002050
:10B92C002DE9F84F064690F8048089469246FFF7B9
:10B93C00EBFF044600283CD1204F2C2508FB057B4F
:10B94C004FF48E71CBF814A0CBF80890CBF82000F4
:10B95C008BF828003068FFF735FE306801238360D0
:10B96C005946FFF737FEDBF804305D461BBB3068E9
:10B97C00DBF814402B6A9C4211D83368D3F81C2195
:10B98C00002AFBD00122DA6000202C2303FB08776D
:10B99C0000237B61BDE8F88F95F828303BB9D0F8CF
:10B9AC001C31002BF8D05946FFF714FEE2E70F20AC
:10B9BC00EBE71120EEE72046ECE700BFA42A0020BD
:10B9CC002DE9F0473A4D07792C2303FB0753064624
:10B9DC005C6824B103684FF40170C3F808032C238E
:10B9EC0003FB0753986950B1D869002841D024B1A2
:10B9FC0033684FF40172C3F80423112436E09A61C2
:10BA0C00D9605862D8612C2303FB075393F8293073
:10BA1C001BB910B93046FFF7ECFD4FF02C0808FBB2
:10BA2C00075A3068DAF80430002B37D14FF4A27182
:10BA3C00D046FFF7C7FD3068D0F82491D0F8083114
:10BA4C00D0F84441CBB914B9B9F1000FF3D02C2381
:10BA5C0003FB07550023AB61B9F1000F24D12CBBBC
:10BA6C0095F8291033680122B1B11A602046BDE85F
:10BA7C00F0871961DA610120C5E7B9F1000FE6D151
:10BA8C00002CE4D14146FFF7C4FDDAF82430DAF893
:10BA9C0018209A42CFD8DAE75A60E7E74FF40173DF
:10BAAC00C0F804330024E1E70324DFE70F24DDE7CB
:10BABC00A42A00200023435082B043580193019BD9
:10BACC0002B070471FB501238DF80030044BCDE94F
:10BADC000110D3E900126846904705B05DF804FBED
:10BAEC00D02A00207FB5434AD2F82461002E60D0C2
:10BAFC0010464FF49271FFF7DDFF02238DF80030F2
:10BB0C00D2F88034C2F880340393D2F83C350293D7
:10BB1C00394BDA6801920022C3E906226846D3E960
:10BB2C00001290473348D0F8443173B14FF4A271EE
:10BB3C00FFF7C0FF304B9A693AB10022C3E90622E5
:10BB4C00D968D0F83C05FFF7BDFF2A48D0F8203162
:10BB5C00ABB14FF49071FFF7ADFF0123C360264BDF
:10BB6C005A6962B1D0F84C150291002299688DF88F
:10BB7C00002001915A616846D3E9001290471D4894
:10BB8C00D0F858319BB14FF4AC71FFF793FF1A4BBF
:10BB9C005A6962B1D0F84C150291002299688DF85F
:10BBAC00002001915A616846D3E90012904704B015
:10BBBC0070BDD2F81031002BB4D04FF48871104600
:10BBCC00FFF778FF0C4BD2F83C0599698842A9D154
:10BBDC00DC69D96864B1D2F8005225F02005C2F8AE
:10BBEC0000521A699C61DA60DE61FFF76BFF99E71E
:10BBFC009C61FAE700200040D02A00202DE9F84390
:10BC0C005A4E90F80480242303FB0863044693F8EF
:10BC1C0020300D469146002B40F0A380544900681B
:10BC2C00FFF7AEFC0746002840F09D802A6820688C
:10BC3C00511C0BD04FF0A04101239340C1F80835A3
:10BC4C0002F5E0734FF0030C41F823C069684B1CFC
:10BC5C001FBF01F5E0734FF0A04C4FF0000E4CF8F5
:10BC6C0023E0AB69C0F8243595F814C06B7DBCF1AA
:10BC7C00010F4CEA0303C0F86C35C0F80C25C0F872
:10BC8C0014151DD1AA68531C1FBF02F5E0734FF0A9
:10BC9C00A0414FF0000C41F823C0EB68591C0BD0AD
:10BCAC004FF0A04C01219940CCF8081503F5E07138
:10BCBC004FF0030E4CF821E0C0F80835C0F8102501
:10BCCC00242202FB08F2B318C3F804902B69B3507A
:10BCDC00B9F1000F2FD04FF488712A7FFFF7EAFEDD
:10BCEC0020684FF49071FFF7E5FE20684FF49271D5
:10BCFC00FFF7E0FE20684FF4A271FFF7DBFE4FF474
:10BD0C00AC712068FFF7D6FE23681A49C3F80413F8
:10BD1C00190B43F307335201002BD2B21CDB16482C
:10BD2C00C51885F8002301225B0901F01F0102FAF6
:10BD3C0001F140F8231023680822C3F800252423BE
:10BD4C0003FB08660023C6E906337361012386F8FA
:10BD5C0020303846BDE8F883084B01F00F015A54E7
:10BD6C00E9E70827F5E71127F3E700BFD02A002001
:10BD7C00F1BA01001003420000E100E014ED00E014
:10BD8C000279044B242101FB02335869003818BF97
:10BD9C0001207047D02A002001F06043B3F1005F0E
:10BDAC002DE9F0470646884692463BD190F8049020
:10BDBC00FFF7E6FF0446002836D11D4F30682425D6
:10BDCC0005FB09754FF49071C5F814A0C5F80880EF
:10BDDC00FFF770FE4FF4AC713068FFF76BFE336801
:10BDEC006A69A968C3F84415C3F8482501229A600A
:10BDFC006A68DAB9D3F82021D3F858011AB90028A7
:10BE0C00F8D00F2007E00028FBD10122DA60D3F82C
:10BE1C005821002AFBD0242303FB097700237B61E4
:10BE2C00BDE8F0871020FBE71120F9E72046F7E783
:10BE3C00D02A0020F8B501F06043B3F1005F04464E
:10BE4C000F465ED10379304D242101FB0351496823
:10BE5C0021B100684FF40476C0F80863242000FB7D
:10BE6C0003539E6956B1D869002839D021B1236893
:10BE7C004FF40472C3F80423112030E09A61DF60A0
:10BE8C00DE6120684FF48871FFF714FE20684FF4D0
:10BE9C00A271FFF70FFE2368C3F83475C3F8382579
:10BEAC0016BB01221A602479242202FB0452526828
:10BEBC000ABBD3F81011D3F84421D3F82401114351
:10BECC0002D10028F5D00A46242303FB0455002395
:10BEDC00984218BF03209A42AB6118BF0F20F8BDDF
:10BEEC001F61DA610126CCE7D3F8002242F0200270
:10BEFC00C3F80022D7E74FF40472C3F804230020E0
:10BF0C00EDE71020EBE700BFD02A00200220FFF75E
:10BF1C00E4B80000034B1B7813B10020FFF7C8B83E
:10BF2C00FFF7CDB8F42A0020F8B57A4C23780546F3
:10BF3C001BB100232370FFF7EDFF172D00F2878054
:10BF4C00DFE805F00C1717425364757F878C878CDC
:10BF5C00949999999999C3C8D0D8E3E3FFF7DAFF7C
:10BF6C006D48FEF711F86D4B002204461A702046FE
:10BF7C00F8BD0020FFF78CF8F0B10020FFF798F81F
:10BF8C00022D0CBF4FF4E1644FF47A64634B1D70C7
:10BF9C0000254FF400464FF47A7029464FF4FA62AC
:10BFAC000023E4FB060102F08DFA2A460146BDE8A7
:10BFBC00F8405948FDF7BABFFFF773F8022D0CBFD4
:10BFCC00C8244FF4C874E1E70020FFF761F840B1D2
:10BFDC000020FFF76DF84FF44874504B03221A7091
:10BFEC00D6E7FFF75EF8C824F7E70020FFF750F814
:10BFFC0038B10020FFF75CF84FF47A64474B042209
:10C00C00EDE7FFF74EF84FF4C874F7E70020FFF7A1
:10C01C003FF848B10020FFF74BF8404B05221A704F
:10C02C0040F6CD410022C2E7FFF73BF8F5E70020D0
:10C03C00FFF753F8394B06221A70002240F2666162
:10C04C00B5E70020FFF72DF8344B07221A700024B7
:10C05C008DE701202070FFF740F8EEE701202070FB
:10C06C00FFF73BF800224FF40051A0E7FFF72EF842
:10C07C002A4B0C22EAE72A482A4EFDF785FFD5F118
:10C08C00110504461CD0D8B9012D13D0C820454346
:10C09C0021464FF400474FF47A704FF4FA620023B4
:10C0AC00C5FB070102F00EFA224601461C48FDF7BB
:10C0BC003DFF04460220FEF7F4FF0123337056E7E0
:10C0CC000220FEF7F5FF0023F8E7FFF723FF134BE1
:10C0DC001222BBE7FFF71EFF0020FEF7E2FF0F4B1B
:10C0EC001322B3E7FFF716FF0120FEF7DAFF0B4B25
:10C0FC001422ABE7FFF70EFF0020FEF7D2FF012062
:10C10C00FEF7CFFF054B1522A0E7FEF7DFFF034B31
:10C11C001D709CE7FC2A002010230020FD2A002023
:10C12C00F0220020F42A0020044B1B68DB0703D507
:10C13C00034B1878FFF7F8BE704700BFF82A0020B1
:10C14C00FD2A0020044B1B6813F0010301D0FFF7FC
:10C15C00EBBE1846704700BFF82A002008B50B4B01
:10C16C00186010F001000FD00120FEF7C4FF084A40
:10C17C0008480021FDF7C8FE30B9BDE80840064A62
:10C18C0006480121FDF7C0BE08BD00BFF82A0020FB
:10C19C0035C1010004F0010019BF010000F00100DD
:10C1AC00072070470620704708B5012202210020A5
:10C1BC00FFF7F6FF08B1072810D107220221012052
:10C1CC00FFF7EEFF08B1072808D100210A22084624
:10C1DC00FFF7E6FF10B1072808BF002008BD0000DC
:10C1EC000388102B10B502D0112B1ED010BD1A4C89
:10C1FC002168B1B901220846FFF7D2FF08B1072820
:10C20C0024D1072202210120FFF7CAFF08B1072819
:10C21C001CD1042202210020FFF7C2FF08B107281D
:10C22C0014D1236801332360E0E70B4A1368013B08
:10C23C001360002BDAD1FFF7B7FF0028D6D0074BDD
:10C24C001B68002BD2D0BDE810401847034B1B686D
:10C25C00002BE6D09847E4E7042B0020002B0020AD
:10C26C0008B50020FFF79EFF08B1062806D1012073
:10C27C00FFF798FF10B1062808BF002008BD00008A
:10C28C00044B1860044B1B680BB9FFF78DBF0020E3
:10C29C00704700BF002B0020042B002076DF704776
:10C2AC007ADF70477CDF70477FDF70478FDF704726
:10C2BC00B1DF704733DF7047FDF7E0BC08B50020F5
:10C2CC00FFF740FF08B1FDF7D9FCFFF7C9FF08B134
:10C2DC00FDF7D4FCFFF7EEFF18B1BDE80840FDF701
:10C2EC00CDBC08BD0388212B13B504463FD007D81D
:10C2FC00112B2DD0132B48D0102B0CD002B010BD0D
:10C30C00522B4AD0562B01D03B2BF7D1A0881321AE
:10C31C00FFF7C4FF15E0254B25482649C01AC00875
:10C32C00000440F00300FDF73DFB0720FFF70AFF78
:10C33C0008B1FDF7A3FC204BA1882048198001F01F
:10C34C00BFFC0028DAD002B0BDE81040FDF796BC67
:10C35C00164B17481A49C01AC008000440F00300D5
:10C36C00FDF720FB144B4FF6FF721A80C6E7002333
:10C37C0080888DF8043001A98DF80530FFF796FF01
:10C38C000028BBD0FDF77AFCB8E70B4800231A460F
:10C39C0085210088FFF788FFD3E7074800231A465A
:10C3AC0019460088FFF784FFCBE700BF58E801006F
:10C3BC0080E8010008F0010034230020A42D0020A7
:10C3CC0012F0010008B503784BB9054B3B211888D6
:10C3DC00FFF764FF18B1BDE80840FDF74FBC08BD7E
:10C3EC0034230020072808B513D00A280DD00428C0
:10C3FC0019D10D4B13211888FFF750FF30F00803AB
:10C40C0011D0BDE80840FDF739BCBDE80840FFF786
:10C41C0055BF054B1A884FF6FF739A4203D1034858
:10C42C0001F079F8EAE708BD34230020982C0020AD
:10C43C0008B548B103280BD10220FFF783FE38B1B1
:10C44C00BDE80840FDF71ABCBDE80840FFF736BF51
:10C45C0008BD00002DE9F04103780546ABBB1C4C30
:10C46C00642644F001044FF47A40A047013EFAD10F
:10C47C00184C194BDFF86480E41AE408240444F0E7
:10C48C000104AB8A9E420ED3FF20FDF76FFFAA8AF0
:10C49C002B69134413F8013C0D2B16D10A20FDF720
:10C4AC0065FF1128F9E72B69985DFDF75FFF0746DB
:10C4BC0048B11128F7D0024641462046FDF776FADE
:10C4CC003846FDF7DBFB0136DBE7BDE8F08100BF4A
:10C4DC0010F1010080E8010058E801001FF0010094
:10C4EC000C4B4A881B889A4212D10A8840F6772353
:10C4FC009A420DD1084A09488B880949801A033B96
:10C50C00C0089BB200041A4640F00300FDF757BA6E
:10C51C00704700BF3423002058E8010080E8010078
:10C52C004AF00100FDF7AABB08B50849084801F01C
:10C53C00DEFA08B1FDF7A2FB0548F72101F0E6FA97
:10C54C0018B1BDE80840FDF799BB08BDEDC401006A
:10C55C00902D002070B50B4E0B4C35686055601952
:10C56C00417018440D218170A91C0C4400218B4290
:10C57C0003DC03332B44336070BD505604F8010BBD
:10C58C000131F4E7B42E0020082B00200C4B0D4891
:10C59C00002119700C4B19700C4B19700C4B197045
:10C5AC000C4B19700C4B19600C4B19600C4B19602F
:10C5BC000C4B19600C4B8022197002F084B800BF30
:10C5CC00912C0020112C0020932C0020C12F002036
:10C5DC00922C0020C02F00200C2C0020082C0020B6
:10C5EC00B82E0020BC2E0020B12E00202DE9F743E0
:10C5FC000378012B00F0D180022B00F0CE80002BB1
:10C60C0040F0BC80684C694D2046FDF799FE2178BE
:10C61C002B78674A6748D154432905D1D41814F8AC
:10C62C00014C432C08BF0360006878B1063083428C
:10C63C000CD1614F386802EB030C06241CF801691D
:10C64C00013CA6F130063044F8D1386056295B48DD
:10C65C0005D1D41814F8014C532C08BF03600068A2
:10C66C0078B1063083420CD1554F386802EB030C7D
:10C67C0006241CF80169013CA6F130063044F8D1BF
:10C68C00386045294F4C05D1D01810F8010C4528BD
:10C69C0008BF237094F9000090B1063083420FD18B
:10C6AC00DFF824C19CF9000002EB030E06261EF8ED
:10C6BC00017930383844013E40B2F8D18CF8000092
:10C6CC00572905D1D11811F8011C572908BF23701F
:10C6DC003E4991F9001079B106318B420CD13C4E98
:10C6EC0096F900101A44062012F8014930392144F9
:10C6FC00013849B2F8D13170364A3E2111702E49B9
:10C70C000968002903DC2E490968002901DD48214C
:10C71C0011702D4991F90010002904DC2C4991F974
:10C72C000010002901DD082111702B4E317819B150
:10C73C002A4909788900117012789A422AD1DFF8B7
:10C74C00A0901B4FDFF89C8032782B78ADF8063028
:10C75C00B9F80030AAB90DF106023946404601F08D
:10C76C0045FC0446FFF712FF082C07D0132CEBD026
:10C77C00052C03D014B12046FDF780FA03B0BDE8B8
:10C78C00F0830022327039460DF10602404601F06A
:10C79C005FFCE6E701332B70F0E7406803B0BDE8BF
:10C7AC00F043FDF76BBA00BF102C0020912C002039
:10C7BC00112C00200C2C0020082C0020BC2E00205A
:10C7CC00B82E0020932C0020922C0020C12F00208A
:10C7DC00C02F0020B12E0020942C0020B02D002062
:10C7EC00342300203823002010B5044B01220C46C2
:10C7FC001A70FFF7CBFE024B1C7010BD942C00205E
:10C80C00B02D002037B50623404A414C414D312113
:10C81C004320FFF79FFE404A062332214320FFF7B7
:10C82C0099FE3E4A062333214320FFF793FE3C4AF0
:10C83C00062334214320FFF78DFE224606233521A3
:10C84C004320FFF787FE062336214320FFF782FEA5
:10C85C00062337214320FFF77DFE06233821432092
:10C86C00FFF778FE2F4A062331215620FFF772FE80
:10C87C002D4A062332215620FFF76CFE0623332166
:10C88C005620FFF767FE062334215620FFF762FE81
:10C89C002246062335215620FFF75CFE062336215F
:10C8AC005620FFF757FE062337215620FFF752FE7E
:10C8BC00062338215620FFF74DFE432108461B4A1C
:10C8CC001B4C0623FFF746FE1A4A0623562153201B
:10C8DC00FFF740FE184A062343215320FFF73AFE88
:10C8EC002368ADF80630154B15481B880DF1060270
:10C8FC00294601F0ADFB4FF480720021284601F06F
:10C90C00E2FE0023236003B030BD00BF66F00100DF
:10C91C00A0F00100082B00206DF0010074F0010064
:10C92C007BF0010082F0010089F0010090F0010021
:10C93C00B42E002096F001009CF00100342300205E
:10C94C003823002000B56B4D0FCDB1B005AC0FC432
:10C95C0095E80300684B694A01934FF4807384E8AF
:10C96C000300CDE903230293654A072301A905A817
:10C97C00FDF78EFC08B1FDF781F94FF480410020E2
:10C98C00FCF772FE08B1FDF779F9FCF7ADFDFDF788
:10C99C0089FA08B1FDF772F95A490320FFF7DEFB5B
:10C9AC0008B1FDF76BF905A90020FFF769FC08B188
:10C9BC00FDF764F9FEF744FA08B1FDF75FF901F0F1
:10C9CC00C3FB08B1FDF75AF9002305A90120059313
:10C9DC0001F04CFC08B1FDF751F905A801F006FD7A
:10C9EC0008B1FDF74BF9112347498DF804300C229F
:10C9FC0001A8FFF757FC08B1FDF740F90023ADF88B
:10CA0C0018301023ADF814303C23ADF8163005A8BF
:10CA1C004FF4C873ADF81A30FFF742FC08B1FDF7BC
:10CA2C002DF9FFF781FD394B3948059305A901F024
:10CA3C0035F908B1FDF722F9364B3748019301A9B6
:10CA4C0001F058FA08B1FDF719F9AC22002105A83C
:10CA5C0001F039FE02238DF8143006238DF81730BF
:10CA6C000123ADF860308DF8903040232B4A27938A
:10CA7C002B482C4B199205A92E9300F0A8FB08B15A
:10CA8C00FDF7FCF82648012100F09EFB14220DEB6B
:10CA9C000200002101F017FE4FF4F0234FF4A032F6
:10CAAC00CDE9062303238DF820301F4B0A9305A8EC
:10CABC001E4B0B9300F04EFE08B1FDF7DFF81C483F
:10CACC0001F0BEFD1B4B1C481C49C01AC0080004D9
:10CADC0040F00300FCF766FF1148032100F0E7FB70
:10CAEC0008B1FDF7CBF8FCF711FE0028FBD1FEF7DF
:10CAFC00BDF9F8E7ECF00100B12D0020C02E0020AC
:10CB0C00F9C50100F1C30100A2F00100C5C201008A
:10CB1C00A42D002061C40100382300203023002004
:10CB2C00982C00203DC40100D1C3010031C5010087
:10CB3C00AFF0010058E8010080E80100C0F00100EE
:10CB4C000369C26893429CBF80681B18013B981A0A
:10CB5C0070472DE9F843D0E902940546A9EB040887
:10CB6C004068904520440F46144404D901F082FDDE
:10CB7C00EC60BDE8F8834246A4EB090401F07AFDB1
:10CB8C006868224607EB0801F0E72DE9F843C56811
:10CB9C000646894617464FF000083469B36870683A
:10CBAC00A54228BFE418013C621B5C1BBC4228BF99
:10CBBC003C46944228BF144649462844224601F07C
:10CBCC0059FDB3682544AB4208BF00253F1BA04468
:10CBDC00A144F560E1D14046BDE8F88310B5114C95
:10CBEC00114AA2610223C4E90433104BE361A2642D
:10CBFC004FF400730E4A0F492362E26400231022A3
:10CC0C00E01DA3626362E362A3656365E36522656D
:10CC1C0001F08CFD0849204601F088FD2023A3710A
:10CC2C0010BD00BFC42F002016F101004C300020B5
:10CC3C003C3000201FF1010023F1010070B5164BB0
:10CC4C00182400FB04451D4404FB00331646DC6A23
:10CC5C00012C0ED0022C18D0E4B92846FFF770FF37
:10CC6C00864204D832462846FFF773FF34462046E6
:10CC7C0070BD2846FFF764FF8642344628BF044641
:10CC8C0022462846FFF765FFF1E72846BDE87040CD
:10CC9C00FFF77BBF0024EAE7C42F0020FFF79EBFFD
:10CCAC006DDF704779DF70477DDF704764DF704759
:10CCBC002DE9F04F85B000250E9CBDF83CB0B4F8C2
:10CCCC0000A00191074690461E46A9463A884A455F
:10CCDC000DDC45B12388013BA3EB0A039BB2FF2B70
:10CCEC003AD806F80A30002005B0BDE8F08F7A6813
:10CCFC0052F82900039000220DF10B0103A8FFF755
:10CD0C00D5FF0028F0D19DF80B20424521D1228877
:10CD1C00002D14BF0020022002EB080101445945EC
:10CD2C001ADC3DB9013292B2019B2280B3542288A5
:10CD3C000132228022880DF10B01324403A8FFF747
:10CD4C00B5FF0028D0D121889DF80B200A44228001
:10CD5C00012509F10109B9E70C20C5E72DE9F341DB
:10CD6C00089FBDF824801546CDE9007802220446C0
:10CD7C001E46FFF79DFF50B9334610222946204628
:10CD8C00CDE9087802B0BDE8F041FFF791BF02B0E1
:10CD9C00BDE8F0812DE9F04F00231788138090F83F
:10CDAC002D3085B006460D4614465BB3082F01D8CE
:10CDBC000C2028E102A8FFF773FF002840F0238124
:10CDCC002388DDF809100822EA54238801339BB22A
:10CDDC001B222380EA54238801339BB2EA18238058
:10CDEC00E950BDF80D30938023889DF80820063358
:10CDFC009BB212F0FE0218BF01222380EA54238852
:10CE0C0001332380B378FBB123880433BB42CFD8E2
:10CE1C0002A8FFF747FF002840F0F5802388032283
:10CE2C00EA54238801339BB219222380EA542388C5
:10CE3C00BDF8082001339BB2E9182380EA54120A8A
:10CE4C004A70238802332380F2789AB12388D91C44
:10CE5C00B942ADD80221E954238801339BB2012198
:10CE6C002380E95423880B449BB22380EA54238803
:10CE7C000B4423807268AAB12388D91CB94297D875
:10CE8C00022192F90020E954238801339BB20A2134
:10CE9C002380E954238801339BB22380EA542388EE
:10CEAC00013323803389002B40F0A180338A5BB19E
:10CEBC00CDE900472B460722032106F11000FFF7AE
:10CECC004DFF002840F09F80338B5BB1CDE90047CC
:10CEDC002B461522142106F11800FFF73FFF0028FE
:10CEEC0040F09180326A002A40F09080D6F824807D
:10CEFC00B8F1000F30D0B8F804302188981C8A1C87
:10CF0C000244BA423FF654AFFE283FF651AF03330A
:10CF1C006B54238801339BB2FF222380EA5423886D
:10CF2C0001339BB22380B8F80020EA54E918120AA6
:10CF3C004A702088023080B22080B8F804205AB1A0
:10CF4C00D8F8081000296BD0284401F093FB2388F3
:10CF5C00B8F804201344238096F82C30002B40F0B2
:10CF6C009880307800284ED03388012B58D02288F6
:10CF7C0002F1020CBC453FF61BAF012805D17378BA
:10CF8C00023313449F42FFF413AF023FBF1ABFB2E8
:10CF9C0002A905EB0C00ADF80870FFF785FE90BBFD
:10CFAC003178BDF80830022900F0B98072789A42C5
:10CFBC0002D39F4280F0B180012940F0B2809742A9
:10CFCC0093B2C0F0AE80ADF808300821BDF808303F
:10CFDC00FE2B3FF6EDAE22880133AB542288013292
:10CFEC0092B22280A9542288134423800BE0CDE90D
:10CFFC0000472B460622022106F10800FFF7AEFE81
:10D00C0000283FF453AF05B0BDE8F08FB4F800C072
:10D01C000CF10603BB423FF6CBAE1188052901D8B3
:10D02C000720F0E76FF4486E01EB0E039BB24FF252
:10D03C007D3E7345F4D95388052BF1D96FF44860C4
:10D04C00181880B27045EBD94FF6FF70814201D0B1
:10D05C009942E5D8052305F80C30238801339BB29F
:10D06C0012212380E954238801339BB22380118839
:10D07C00E954E818090A4170238802339BB22380D3
:10D08C005288EA54E918120A4A7023880233238022
:10D09C002CE7B36A002BC3D04FF000084FF00C0AFA
:10D0AC004FF0160BB16A5FFA88F20AFB02F201EB41
:10D0BC000209B9F80430981CFE283FF679AE208896
:10D0CC0003332B54238801339BB2238005F803B020
:10D0DC00238801339BB223808A5AEA54E918120A36
:10D0EC004A702088023080B22080B9F804205AB1EE
:10D0FC00D9F80810002993D0284401F0BBFA2388F2
:10D10C00B9F804201344238096F82C2008F1010868
:10D11C005FFA88F39A42C5D823E7092156E79F4264
:10D12C00FBD2ADF8087050E730B5C8B1F2B10024AD
:10D13C00651C8D4206DA1588A54212D805196D7842
:10D14C009D420ED1A14211D9005D48B1013880B287
:10D15C0030B10234A3B210FA84F4A14206DB13807E
:10D16C0030BD055D01352C44A4B2E1E70020F7E7A2
:10D17C0013B513460022ADF806200DF10602044645
:10D18C00FFF7D2FF10B1BDF80600204402B010BD6D
:10D19C0072DF704773DF704774DF704738B5012258
:10D1AC0004460D46B0F8D810D0F8D400FFF7E0FFD5
:10D1BC0000B1057004F13C0204F1D40104F15400F7
:10D1CC00BDE83840FFF7E4BF80F830107047F8B581
:10D1DC0004460F46002966D0002864D091F87A30B6
:10D1EC001BB191F89830002B5FD1D7F8A030042BED
:10D1FC005BD0D7F89C30042B57D04FF0000C84F840
:10D20C0002C007F178060FCE251D0FC50FCE0FC536
:10D21C0096E8070085E8070084F830C0D7F8A430FA
:10D22C006363D7F8A830A36304F1D4024FF6FF73FD
:10D23C00C4F8EAC0A4F8E830C4F8E420C4F8EDC09F
:10D24C0022780AB984F85430224604F155011F257E
:10D25C00C4F8D410384622F8D85FFFF79BFD08BB02
:10D26C00224604F19301C4F8DC1007F13C0022F8CB
:10D27C00E05FFFF78FFDA8B9A369A4F848304FF41D
:10D28C0080730125A4F8503063692064014684F84A
:10D29C003C50636404F13C0204F15400FFF778FF46
:10D2AC0000B92570F8BD0E20FCE70720FAE7F8B5A9
:10D2BC00077804460D46002F00F0F6800023C0F8D6
:10D2CC00EA30C0F8ED30C388817000F1EA060BB18A
:10D2DC00012903D0E37943B1022D06D1636BABB1C5
:10D2EC00012284F8F1200820984704F1EB0304F1A3
:10D2FC00F10113F8012B12B99942FAD117466B1EA2
:10D30C00032B4ED8DFE803F0050B0F1284F8F13035
:10D31C00EBE7A3791BB194F8243003B95FB9E37937
:10D32C000BB1002F3FD1237A002B3ED1637A002B17
:10D33C000CBF00250425636BA570002B37D0033D73
:10D34C00012D34D8627992B394F8F2207ABB84F828
:10D35C00F420012284F8F3200720984704F13C05BF
:10D36C0018220021284601F0AEF9E26A531E012171
:10D37C00022B94F8243084F83C1028BF0A4684F819
:10D38C00512033B1A36A5A1E022A28BF0B4684F8D7
:10D39C005230A378042B1CD8DFE803F06D0D233337
:10D3AC0053000025C7E70225C5E70325C3E7002383
:10D3BC0084F8F330D2E7012384F831300023C4E938
:10D3CC001063C4F8E430022384F83C308023A4F8C2
:10D3DC004830A378002B52D1636B002B60D1002016
:10D3EC005DE0022384F83130032384F83C30236958
:10D3FC00A4F848300023C4F8E430E368266463647E
:10D40C00E7E763696364A369A4F848306379B3B14F
:10D41C0094F8F2309BB994F8F43083B1022384F879
:10D42C00503004212046FFF7B9FE0028D1D1052346
:10D43C0084F8313004F1D403C4F8E430C9E7032391
:10D44C00F6E7E3696364236AA4F84830637983B12F
:10D45C0094F8F2306BB994F8F43053B1022384F899
:10D46C00503004212046FFF799FE0028B1D1062345
:10D47C00DEE70423DCE7002384F83130A9E7D4F895
:10D48C00E4102A4604F15400FFF782FE38B994F8F0
:10D49C00301094F85400FFF77DFE00289CD0F8BDA6
:10D4AC0094F8310098479AE70820F8E70388112B85
:10D4BC0010B50C460AD0262B1FD0102B05D1C37BE0
:10D4CC00012B02D18388A1F8E83010BD002283889B
:10D4DC0081F8F220B1F8E8209A42F6D10B79002BB2
:10D4EC00F3D101212046FFF7E2FE0028EDD0A36B1B
:10D4FC00002BEAD0BDE810401847037A013B012B02
:10D50C00E3D8897805230131B1FBF3F303EB8303F3
:10D51C00C91AC9B2E6E738B5044690F85400FFF7CB
:10D52C003BFE012384F8F230002384F8F43084F8B5
:10D53C00503006212046FFF731FE054638B9A17858
:10D54C002046FFF7B4FE10B1A36B03B198472846F1
:10D55C0038BD75DF704776DF70477ADF70477BDF49
:10D56C0070470000034B1A8882420CBF18460020FB
:10D57C00704700BF68320020024B9B6903B118470B
:10D58C00704700BF4C32002073B585B22846FFF7B8
:10D59C00E9FF044638B3174E027A337B9A420CD219
:10D5AC0000F10A012846FFF7D4FFF0B111281AD078
:10D5BC0002B0BDE87040FFF7DFBF00230372337C7D
:10D5CC0043B13B212846FFF7C6FF30F0080301D0DA
:10D5DC00FFF7D2FF736933B100228DF80420ADF848
:10D5EC00065001A8984702B070BD237A013323720C
:10D5FC00F9E700BF4C32002013B50B46497A0246BE
:10D60C000E4871B9D0E901101C7A002C18BF0146E4
:10D61C005868FCF78BFC78B102B0BDE81040FFF7FE
:10D62C00ABBF00211972436933B101218DF804108D
:10D63C00ADF8062001A8984702B010BD4C3200206E
:10D64C004B8802889A4212D842889A420FD380881B
:10D65C008B8840F2F311884294BF021A421A9A4204
:10D66C0005D80844984234BF0020012070470020A0
:10D67C00704700000388122B70B5014659D004D8AE
:10D68C00102B1ED0112B44D070BD502BFCD12F4B26
:10D69C00C288DB899A42F7D1038A022BF4D186889F
:10D6AC003046FFF75FFF05460028EDD001F1120070
:10D6BC0000F071F938BB6868FCF766FC0028E3D011
:10D6CC0009E0C37B012BDFD14FF6FF70FFF74AFF58
:10D6DC00054620B90420BDE87040FFF74DBF1C4A39
:10D6EC008E880680002303721368C0F80A305368D2
:10D6FC00C0F80E3010310A30FFF7A2FF134B6872DE
:10D70C00DB89002BC0D129463046BDE87040FFF7BD
:10D71C0073BF8088FFF726FF04460028B4D040680A
:10D72C00FCF732FC08B1FFF727FF4FF6FF7323809D
:10D73C00AAE786883046FFF715FF05460028A3D0D8
:10D74C0008310A30FFF77CFF6872DCE74C320020AE
:10D75C007C320020F8B5064648B305460FCD154F70
:10D76C003C460FC495E8070084E807003068124C6B
:10D77C003C60B0B1FFF7F1FEC0B9326813682360AA
:10D78C00536863600D480E4A4FF6FF7303800D4BD0
:10D79C0040F8043F0021FCF7B7FB002818BF03201A
:10D7AC0004E02046FFF7DBFE0028EBD0F8BD0E208E
:10D7BC00FCE700BF4C3200207C3200206832002095
:10D7CC0095D50100883200200AB1FCF7F5BFFCF7B3
:10D7DC00FCBF73B50191019C06466CB100252C462B
:10D7EC00294601A8FCF7FBFF18B106EB44030134F2
:10D7FC009D800135142DF3D13046346002B070BDDC
:10D80C002DE9F04303888488103B8DB00A2B1ED879
:10D81C00DFE803F006361D1D1D1D1D1D1D5B3D00A3
:10D82C002E4FBB68DB43009379686846FDF703F81D
:10D83C00009901A8FFF7CDFF0DF108080026019B08
:10D84C009E4207D3132C12D90420FCF717FA0DB003
:10D85C00BDE8F08338F8029B00250135494607EBFB
:10D86C008500FCF7B2FF1E2DF7D10136E7E7214604
:10D87C001B48FCF7A1FF1B482146FCF79DFFE6E780
:10D88C00174821460DB0BDE8F043FCF79EBF027A65
:10D89C0015483F2A4FEA1215214694BF0022012257
:10D8AC00FFF792FF022D94BF002201220F48214660
:10D8BC00FFF78AFF012D0E4894BF0022012221465A
:10D8CC000DB0BDE8F043FFF77FBF037A002BBED14C
:10D8DC00427A0548C2F3C0022146F1E7A832002083
:10D8EC00B0320020AC320020C0320020BC3200200C
:10D8FC00B83200201328014602D80248FCF76FBF4B
:10D90C0000207047AC32002010B50446FFF7F2FF40
:10D91C00002814BF2046142010BD70B505461646CD
:10D92C0008460AB90E2070BD00231360002DF9D0F3
:10D93C002B68002BF6D0EB8813F003040ED1FFF705
:10D94C00E3FFC0B214280BD02B7983420AD9EA88A2
:10D95C002B6800FB023030602046E4E70720E2E74A
:10D96C000520E0E70420DEE7AADF7047002301383A
:10D97C000B70042806D8DFE800F00306080A0C0038
:10D98C0011230B7070472123FBE73123F9E7122396
:10D99C00F7E72223F5E7008800F001007047F0B5A7
:10D9AC008B7891B00C46012B38BF012300278DF8E2
:10D9BC000E3005460B88607CADF80C306946ADF82E
:10D9CC0000708DF80270FFF7D1FFA07C0DF1010102
:10D9DC00FFF7CCFF1646237BE27B217D43EAC20393
:10D9EC00227C43EA02139DF80220B94222F019026C
:10D9FC0003F0190314BF02210121134361F3420305
:10DA0C001C22394609A88DF8023000F05CFE637BBD
:10DA1C0013F0300F14D00DF10901E07CADF8087053
:10DA2C008DF80A70FFF7A2FF11238DF808309DF8CE
:10DA3C000A30012102AA61F342038DF80A300E92DA
:10DA4C00637B8DF82430A37B8DF825300023CDE942
:10DA5C000633089303AB0493A388ADF81C30A3687A
:10DA6C00CDF814D01BB1E288ADF818200893A36947
:10DA7C0073B301A90022ADF804208A701A88ADF89E
:10DA8C002C205A88ADF82E205A680D91187B0A92DA
:10DA9C00FFF76CFFA3690DF10501587BFFF766FFDB
:10DAAC00A3699A7A197A41EAC201DA7A9B7B41EA34
:10DABC0002119DF80620002B01F0190122F0190229
:10DACC0014BF02230123114363F342018DF80610A6
:10DADC00E36903B10C93334604AA09A92846FFF75E
:10DAEC0043FF11B0F0BDA5DF7047B5DF704758B1EB
:10DAFC004FF0F7130360FB230371F723C380172345
:10DB0C00C1608360002070470E20704730B1A1F1D6
:10DB1C001703E02B04D80180002070470E207047BB
:10DB2C000720704713B5034680880C4690B91A88B5
:10DB3C003A2A68D010D8102A3DD0112A5ED0A37A88
:10DB4C0043B1E1880020FFF7CEFF002876D14FF4D7
:10DB5C008073638102B010BD552AF0D1DB88C9886F
:10DB6C00A072172B38BF17238B4228BF0B4623817B
:10DB7C00FFF7BBFF60B1FDF7E9F9394B39490246B4
:10DB8C0039481B1ADB081B0443F00100FBF70EFF9E
:10DB9C00E27A002AD3D1E368002BD0D040F677216B
:10DBAC00ADF802202289ADF80010ADF804206946CA
:10DBBC0020469847C3E7DB7B012B04BF0B88CB8047
:10DBCC00C98823898B42BAD20020FFF78CFF10B989
:10DBDC000123E372B3E7112802D10123A372AEE74C
:10DBEC00FDF7B4F91E4B214902461F481B1ADB08EE
:10DBFC001B0443F00100FBF7D9FEA0E7F723CB8011
:10DC0C0017238B609BE75B89CA88934228BF134616
:10DC1C00172BCA6838BF17230B8162B1C97A51B16F
:10DC2C0040F67721ADF80010ADF80200ADF80430E5
:10DC3C006946204690470023638180E7112889D0EC
:10DC4C00FDF784F9064B0949024607481B1ADB0805
:10DC5C001B0443F0010002B0BDE81040FBF7A6BE68
:10DC6C00A8E801005BF1010058E801002AF101006D
:10DC7C00B0DF704766DF704710B50021044640885E
:10DC8C00FFF7F8FF034608B9237210BD112801D124
:10DC9C000123F9E76368BDE81040184760B159B13A
:10DCAC000378DE2B0AD00B684360DE2303704FF63B
:10DCBC00FF734380002070470E2070470820704788
:10DCCC0028B10378DE2B04D14180002070470E2050
:10DCDC00704708207047F0B5054685B00C46002902
:10DCEC0042D0002840D00B78DE2B3DD182884B8867
:10DCFC009A4204D10B7A13B10846FFF7BDFF2B886B
:10DD0C00112B33D0512B0FD0012B2DD12B7A012B72
:10DD1C002AD1A9886288914226D12046237205B067
:10DD2C00BDE8F040FFF7A8BFAE886388B3421BD1B3
:10DD3C00AF79022F18D1AD7B2B1F022B14D80021E9
:10DD4C001022684600F0BFFC052D18BF4FF4C073BD
:10DD5C006946304618BFADF804308DF80070FFF7F7
:10DD6C0087FF08B16368984705B0F0BD6388AA883F
:10DD7C009A4204BF4FF6FF736380F5E7A8DF704744
:10DD8C00ADDF7047AEDF704762DF7047044B187829
:10DD9C00AD2801D1FEF736BD5978FEF725BD00BF81
:10DDAC0024330020F0B504468BB00D4600295FD01B
:10DDBC0000285DD00388502B35D0572B79D0102BF1
:10DDCC0056D181886869002601AA0196FFF7A5FD46
:10DDDC0002232989A088ADF80A6002AACDF80CD0DC
:10DDEC00ADF80830FFF7CCFF002841D1AB69002B10
:10DDFC003ED00398FFF7CFFD002839D0019E0EB11D
:10DE0C00012333701822002104A800F05CFC0223CB
:10DE1C008DF81030A388ADF81830AB6905950796CE
:10DE2C0004A8984724E08188686902AAFFF775FD69
:10DE3C001822002104A800F046FCA3882989ADF81B
:10DE4C001830E388029A05959942079217D1268AD1
:10DE5C00022E14D162B104F11200FFF79CFD029B5B
:10DE6C0040B101221A708DF81060AB69002BD7D12C
:10DE7C000BB0F0BD187003238DF81030F5E7AA89AC
:10DE8C009A42F5D1AB69002BF2D0228AADF824204E
:10DE9C0004F11205089504A89847154A2B461F341F
:10DEAC0013F8011B02F8011B9C42F9D1FFF76EFF1E
:10DEBC00DEE78188686902AAFFF72FFD014600287A
:10DECC00D6D1029F3B78002BD2D0AE69002ECFD09A
:10DEDC00182204A800F0F7FB01238DF81030A3885A
:10DEEC000595ADF81830079704A8B047C0E700BFF8
:10DEFC0024330020F0B53B4B8FB002AD04460A46EC
:10DF0C0003F1100C2F46186859682E4603C60833C7
:10DF1C0063453546F7D1002C61D0002A5FD01368D9
:10DF2C00A36121463846FFF72FFF002855D1224622
:10DF3C00012512F8023B8DF8063001A92846ADF8F0
:10DF4C000450FFF71BFF002847D10146202206A8EA
:10DF5C0000F0B9FB224640F6ED73ADF8183012F81C
:10DF6C000C3B8DF81A30BDF824301F4F6088079792
:10DF7C0023F4F75323F01F0343F4F0532B4340F2E5
:10DF8C00011606A9ADF824308DF82950ADF82A6099
:10DF9C00FFF705FD08BB0146202206A800F093FB05
:10DFAC0022464FF6ED63ADF8183012F8043B8DF8AD
:10DFBC001A30BDF824306088079723F4875323F078
:10DFCC001F0343F480532B4306A9ADF824308DF87E
:10DFDC002950ADF82A60FFF7E2FC0FB0F0BD0E201F
:10DFEC00FBE700BFD5F20100F4000100F0B50F46CD
:10DFFC0087B016461C46054610B3406901AA19465F
:10E00C00FFF78BFCD0B94FF6FF739C421AD0019BE3
:10E01C00C3B11B78C3B13388F42B17D8AB88CDF8B8
:10E02C000B008DF80F00ADF8083002A90123204633
:10E03C00CDE904678DF80A30FFF7A4FE07B0F0BDF8
:10E04C000E20FBE70520F9E70820F7E70720F5E7A6
:10E05C00F0B50F4687B016461C46054610B340690E
:10E06C0001AA1946FFF759FCD0B94FF6FF739C4231
:10E07C001AD0019BC3B11B78C3B13388F42B17D8CA
:10E08C00AB89CDF80B008DF80F00ADF8083002A964
:10E09C0001232046CDE904678DF80A30FFF772FEA4
:10E0AC0007B0F0BD0E20FBE70520F9E70820F7E7E5
:10E0BC000720F5E710DF704713B504460949684699
:10E0CC00FCF7E9FE019808B902B010BDD0E90031A7
:10E0DC002046984718B16846FCF7E7FEF2E7112096
:10E0EC00F2E700BFF4F2010013B504460749684695
:10E0FC00FCF7D1FE019B0BB902B010BD2046D3E951
:10E10C00002190476846FCF7D0FEF3E70CF30100C2
:10E11C000B4991F816335A09EC231341DB0706D54A
:10E12C00084B9A683AB94FF480030B60704742F27F
:10E13C000200FBF7A3BD1A6842F480021A60704714
:10E14C0000E100E0F0290020F7B5194F3C7864BBE2
:10E15C00184E012520463570FFF7AEFF112821D04F
:10E16C002046FFF7C1FF144B8DF80340186801904F
:10E17C000DF10300FCF722F9104901A8FFF79AFFF3
:10E18C000446B0FA80F0400938709DF80300FCF7A3
:10E19C0039F93CB90A4B34701C70FFF7B9FF2846AB
:10E1AC00FFF7A2FF204603B0F0BD0824FAE700BF3A
:10E1BC003233002031330020EDF20100A59C010028
:10E1CC0033330020014B1878704700BF32330020E6
:10E1DC0007B508496846FCF75EFE019B13B903B00E
:10E1EC005DF804FBD3E9002090476846FCF75DFE20
:10E1FC00F3E700BF00F30100FFF7EABF60DF7047F1
:10E20C0069DF704761DF704730B5134DADF5017DA7
:10E21C004FF4FA740DF1020103A8ADF80240FFF7B8
:10E22C00F1FF70B9294601A8FCF735FE029B002BC3
:10E23C00F0D003A8D3E90021904701A8FCF735FEE4
:10E24C00F4E7052805D00DF5017DBDE83040FBF75E
:10E25C0015BD0DF5017D30BD94F50100024B1B7809
:10E26C000BB1FFF7D1BF70473433002030B50546F2
:10E27C0085B00C46002900F0A4800023CDE90133C1
:10E28C00514A039301230A608DF804008DF806307F
:10E29C0001A906232020ADF80830FFF7B1FF60B1CB
:10E2AC00FCF754FE494B4A4902464A481B1ADB0804
:10E2BC001B0443F00100FBF779FB0023CDE901338C
:10E2CC0003932268012301A940208DF80530FFF744
:10E2DC0097FF60B1FCF73AFE3C4B3F4902463D4884
:10E2EC001B1ADB081B0443F00100FBF75FFB002348
:10E2FC00CDE90133039322688DF80450F72301A96B
:10E30C002320ADF80630FFF77BFF60B1FCF71EFE53
:10E31C002E4B324902462F481B1ADB081B0443F0D4
:10E32C000100FBF743FB002301202268039301A9A2
:10E33C00CDE901338DF80400FFF762FF60B1FCF703
:10E34C0005FE224B2649024622481B1ADB081B04F9
:10E35C0043F00100FBF72AFB0023CDE902332268CE
:10E36C004FF4B06301A9A1200193FFF749FF60B1FD
:10E37C00FCF7ECFD154B1B49024616481B1ADB0833
:10E38C001B0443F00100FBF711FB002522680395E9
:10E39C0001A9A020CDE90155FFF732FF034668B172
:10E3AC00FCF7D4FD094B104902460A481B1ADB083E
:10E3BC001B0443F00100FBF7F9FA2B46184605B095
:10E3CC0030BD0E23FAE700BFC8220020B8E80100D8
:10E3DC0018F3010058E801005EF30100AAF30100F4
:10E3EC00F1F301003DF401008EF40100F8B506468E
:10E3FC000768FFF703FF3368BB4205461DD9194870
:10E40C00194C1A49241AE408240444F00204204646
:10E41C00FBF7C8FA336816493A462046FBF7CFFAA1
:10E42C004FF080533268D3F80C3112499B0203F140
:10E43C0000539A1A2046FBF7B9FA25B90E4B012264
:10E44C001A702846F8BD2846FCF780FD064B0B4990
:10E45C00024604481B1ADB081B0443F00100FBF7BF
:10E46C00A5FAEEE758E80100B8E80100E1F4010074
:10E47C0010F5010041F50100343300206BF501006B
:10E48C004BDF70471FB50E4C01A8FFF7F9FF70B9B1
:10E49C00214602A8FCF7FFFC039B002BF4D001984B
:10E4AC00D3E90021904702A8FCF7FFFCF4E705280C
:10E4BC0004D004B0BDE81040FBF7E0BB04B010BDC5
:10E4CC00ACF5010053EA020C61D02DE9F04BB3FA24
:10E4DC0083F51E0007BFB2FA82F502FA05F403FABF
:10E4EC0005F41646C5F120051EBF22FA05F73C437C
:10E4FC00203556EA044C4FEA144418BF0134A346A5
:10E50C004FF00009C846904271EB030C39D3094215
:10E51C0007BFB0FA80F700FA07F6B1FA81F701FAF3
:10E52C0007F6C7F120071EBF20FA07FC46EA0C06C7
:10E53C002037B6FBFBFC7F1B103F07F01F04C4F118
:10E54C0020060CFA04F42CFA06F644BF34460026D6
:10E55C00202FA4BF2646002454EA060C08BF012431
:10E56C0018EB040849EB0609A4FB027CC01B06FB54
:10E57C0002CC04FB03CC71EB0C01904271EB030C4D
:10E58C00C5D20B46024649464046BDE8F08BB2FB6D
:10E59C00F3F200007F2805D8034A044B105C5B5C47
:10E5AC001840704700207047C4F5010044F6010084
:10E5BC00A0F16103192B98BF20387047A0F14103DB
:10E5CC00192B98BF203070477F299ABF017001200A
:10E5DC006FF02E00704700BF5AB10A787F2A0AD814
:10E5EC0000B102600021501AC3E9001118BF0120CC
:10E5FC007047104670476FF02E007047A0F1610312
:10E60C00192B98BF20387047A0F14103192B98BFE4
:10E61C00203070477F2805D8034A044B105C5B5CA4
:10E62C001840704700207047C4F5010044F6010003
:10E63C00024B5B689B6809211B6818475C23002010
:10E64C0020B582B0451E00F0C3F803E0FCF788FC4F
:10E65C00431C08D015F8010F00210028F6D1014603
:10E66C000A20FCF77DFC019000F0B4F8019802B090
:10E67C0020BD00BF844640EA010313F0030F18D1FC
:10E68C008446202A0BD32DE9F007B1E8F807A0E85F
:10E69C00F807A2F12002202AF7D2BDE8F007042ADD
:10E6AC0007D351F8043B40F8043BA2F10402042ABE
:10E6BC00F7D2002A05D011F8013B00F8013B013AD2
:10E6CC00F9D1604670478446002A2DD010F0030F14
:10E6DC0004D000F8011B013A26D0F7E7C9B241EA91
:10E6EC00012141EA0141202A12D3A2F120022DE995
:10E6FC00F0030B460C460D460E460F4688468946DF
:10E70C00A0E8FA03203AFBD2BDE8F00320320BD08C
:10E71C00042A05D340F8041B043A05D0042AF9D284
:10E72C0000F8011B013AFBD160467047024610F01D
:10E73C00030F16D111F0030F13D12DE9F0004FF098
:10E74C0001374FF0803351F8044BA4EB070525EA51
:10E75C0004051D4002D142F8044BF4E7A1F1040179
:10E76C00F0BC11F8013B02F8013B002BF9D17047CA
:10E77C0000F1010110F0030F11D010F8012B002A49
:10E78C0023D010F0030F0AD010F8012B002A1CD054
:10E79C0010F0030F03D010F8012B002A15D02DE92F
:10E7AC0070004FF001324FF0803350F8044BA4EB63
:10E7BC00020525EA04051D4000D1F6E7A0F104008E
:10E7CC0070BC10F8012B002AFBD1A0EB01007047A4
:08E7DC00704700BF704700BF49
:08E7E40059B101000000000022
:10E7EC000DD8010000000000EDC101000000000088
:10E7FC00B9D40100982C002031DB0100902D0020B1
:10E80C0081D6010000000000E3DC0100A42D0020F3
:10E81C00B1DD010038230020F1C20100000000002E
:08E82C00F5B10100000000003D
:10E8340069E201000000000091E401000000000012
:10E84400B42300207C24002084240020BC23002046
:04E8540018000000A8
:10E85800E2EF010000000000E8EF01000000000006
:10E86800EFEF010000000000F3EF010000000000DE
:10E87800F8EF01000000000045E901000000030373
:10E888001CEA01000000000040EA0100000000004E
:10E89800CDF2010000000000DCEF010000000000E4
:10E8A8008AF1010000000303E5F201000000030300
:10E8B80088F5010000000303A0F501000000030330
:10E8C80097F201000000030397F101000000030321
:10E8D800BDF2010000000303ACF2010000000303D5
:10E8E800C6EA010000000000DCEA010000000000A8
:10E8F80018E901000000000024E90100C8220020F6
:10E9080000000000000000000338FDD87047000038
:10E91800C19301002D940100BD9301007274745FCE
:10E928006C6F675F6261636B656E64004261636B05
:10E93800656E647320666C757368656400617070D9
:10E9480000000000A42800207F00000024290020E7
:10E958001B5B313B33316D0025734C6F677320644B
:10E96800726F70706564202825642925730D0A006C
:10E978001B5B306D002573003C25733E2025733AE0
:10E988002000202530327800202020007C002563DC
:10E99800001B5B313B33306D001B5B313B33326D09
:10E9A800001B5B313B33336D001B5B313B33346DF4
:10E9B800001B5B313B33356D001B5B313B33366DE0
:10E9C800001B5B313B33376D007761726E696E6790
:10E9D80000696E666F0064656275670078E901001A
:10E9E80099E9010058E90100A1E90100A9E901003C
:10E9F800B1E90100B9E90100C1E90100C9E9010073
:10EA0800000000002DEA0100D1E90100D9E9010068
:10EA1800DEE901006170705F627574746F6E0046A4
:10EA28006174616C206572726F72005379737465DA
:10EA38006D207265736574006170705F74696D65CF
:10EA48007200010006000000000000003C290020C0
:10EA5800799D0100FFFFFFFFFFFFFFFFFFFFFFFFA3
:10EA6800FFFFFFFF00000000000000000000D601CB
:10EA78000601000052544320696E7374616E636529
:10EA880020616C726561647920696E697469616C72
:10EA9800697A65642E005254433A20696E69746934
:10EAA800616C697A65642E000338FDD8704730318F
:10EAB8003233343536373839414243444546707726
:10EAC800725F6D676D7400002CE801002CE801008E
